:100000000C947D000C94A6000C94A6000C94A60001
:100010000C9477190C94A6000C94A6000C94A600DE
:100020000C94A6000C94A6000C94A6000C94A600B8
:100030000C94A6000C9415080C94A6000C94A60031
:100040000C94A6000C94A6000C94A6000C94A60098
:100050000C94340F0C94A6000C94A6000C94A600EB
:100060000C94A6000C94A6000C94A6000C94A60078
:100070000C9452070C94A6000C94A60024504D54E6
:100080004B3331342C302C302C302C352C302C3060
:100090002C302C302C302C302C302C302C302C3080
:1000A0002C302C302C302A32440D0A002D2D2D0DF1
:1000B00000242424002D2D2D0D00534E2C50494E8C
:1000C000506F696E743400534A2C303035300D0057
:1000D00053492C303035300D0053532C5365726921
:1000E000616C506F72740D0053432C313130310DFF
:1000F0000053552C00242424000011241FBECFEFF0
:10010000D8E0DEBFCDBF84B780937D0314BE88E105
:100110000FB6F89480936000109260000FBE12E05A
:10012000A0E0B1E0E0ECF1E602C005900D92AC3445
:10013000B107D9F713E0ACE4B2E001C01D92AD37CE
:10014000B107E1F70E942E1E0C94DE300C940000E3
:100150008EBD0DB407FEFDCF8EB508952C9885E0B9
:100160008EBD0DB407FEFDCF8EB582E18EBD0DB400
:1001700007FEFDCF8EB52C9A08950E94AE0080FD3B
:10018000FCCF0895DF92EF92FF920F931F93CF93CE
:10019000DF93FC01DB017A0140FD6DC014161506EA
:1001A0000CF069C02C9886E08EBD0DB407FEFDCF23
:1001B0008EB52C9A2C988DEA8EBD0DB407FEFDCF1E
:1001C0008EB582818EBD0DB407FEFDCF8EB58181C7
:1001D0008EBD0DB407FEFDCF8EB580818EBD0DB4F2
:1001E00007FEFDCF8EB58C918EBD0DB407FEFDCF01
:1001F0008EB511968C9111978EBD0DB407FEFDCF73
:100200008EB583E0E816F10404F1ED0102E010E0A0
:100210008DEAD82E2C9A0E94BD002C98DEBC0DB41D
:1002200007FEFDCF8EB58A818EBD0DB407FEFDCFD2
:100230008EB58B810E5F1F4F8EBD0DB407FEFDCFB7
:100240008EB522960E151F052CF32C9A0E94BD0028
:100250002C9884E08EBD0DB407FEFDCF8EB52C9A90
:100260000E94BD0081E0DF91CF911F910F91FF901F
:10027000EF90DF90089580E0DF91CF911F910F9173
:10028000FF90EF90DF900895FC01141615066CF5B1
:100290002C9883E08EBD0DB407FEFDCF8EB5828114
:1002A0008EBD0DB407FEFDCF8EB581818EBD0DB420
:1002B00007FEFDCF8EB580818EBD0DB407FEFDCF4C
:1002C0008EB520E030E092E19EBD0DB407FEFDCF7B
:1002D0008EB5FB01E20FF31F80832F5F3F4F241782
:1002E000350794F32C9A81E0089580E008952C98C6
:1002F00080E58EBD0DB407FEFDCF8EB52C9A2C98EF
:1003000081E08EBD0DB407FEFDCF8EB51EBC0DB4D1
:1003100007FEFDCF8EB52C9A2C9884E08EBD0DB4CF
:1003200007FEFDCF8EB52C9A81E008952C9A80EBC4
:1003300084B98DE58CBD8DB58EB50E947701089589
:100340002C9886E08EBD0DB407FEFDCF8EB52C9A9D
:100350002C9880E68EBD0DB407FEFDCF8EB52C9A8D
:100360002C9884E08EBD0DB407FEFDCF8EB52C9A7F
:100370000E94BD0081E008958F929F92AF92BF923C
:10038000CF92DF92EF92FF920F931F93FC014A01ED
:100390005B01411551056105710509F443C02C98B5
:1003A00083E08EBD0DB407FEFDCF8EB582818EBD7C
:1003B0000DB407FEFDCF8EB581818EBD0DB407FE55
:1003C000FDCF8EB580818EBD0DB407FEFDCF8EB5FD
:1003D000EE24FF248701DD2492E1C92ECEBC0DB4AA
:1003E00007FEFDCF6EB5D60E81E00E942402089470
:1003F000E11CF11C011D111DE814F9040A051B057F
:1004000068F32C9A81E06D2D0E94240281E01F91F7
:100410000F91FF90EF90DF90CF90BF90AF909F90A3
:100420008F90089580E0F3CF813039F08091C8003B
:1004300087FFFCCF8091CE0008958091C00087FF98
:10044000FCCF8091C6000895813039F08091C800BA
:1004500085FFFCCF6093CE0008958091C00085FF9A
:10046000FCCF6093C60008951F93CF93DF93182F9E
:10047000EB016881662339F0812F0E9424022196C6
:1004800068816623C9F7DF91CF911F9108951F936B
:10049000CF93DF93182FEB01FB018491882351F058
:1004A000FE016491812F0E9424022196FE01849115
:1004B0008823B1F7DF91CF911F9108952F923F923A
:1004C0004F925F926F927F928F929F92AF92BF9264
:1004D000CF92DF92EF92FF920F931F93DF93CF9310
:1004E000CDB7DEB72A970FB6F894DEBF0FBECDBFEB
:1004F00089830A831B832C833D834E835F836887B4
:10050000798777FD28C16BE20E9424022A813B8112
:100510004C815D816E817F8188859985BAE0AB2EA3
:10052000BB24CC24DD24EE24FF2400E010E00E9454
:10053000771F232B242B252B262B272B282B292BEE
:1005400009F4CFC1FAE03F2E4424552466247724D1
:10055000882499242224232D342D452D562D672DB2
:10056000782D892D922D01E00E94F81E122FF32E76
:10057000E42ED52EC62EB72EA82E992E02E00E946C
:10058000F81E210FF1E0211708F0F0E03F0DE1E047
:100590003F1508F0E0E0BF2FB30FF1E0B31708F00C
:1005A000F0E0EF2B4E0D31E04E1508F030E0AE2FAD
:1005B000A40FE1E0A41708F0E0E03E2B5D0D41E060
:1005C0005D1508F040E0F32FF50F31E0F51708F066
:1005D00030E0432B6C0D31E06C1508F030E0E42F77
:1005E000E60F41E0E61708F040E0342B7B0D41E0D8
:1005F0007B1508F040E0532F570F31E0571708F0F4
:1006000030E0432B8A0D11E08A1508F010E0480F06
:1006100031E0481708F030E0132B990D190F322EF6
:100620004B2E5A2E6F2E7E2E852E942E212E2A8111
:100630003B814C815D816E817F8188859985A32C6A
:10064000BB2ECA2EDF2EEE2EF82C092D0E94771F0E
:10065000232B242B252B262B272B282B292B09F06A
:100660007ACF232D342D452D562D672D782D892DAC
:10067000922DEAE0AE2EBB24CC24DD24EE24FF2410
:1006800000E010E00E94771F9A87322E432E542EEE
:10069000652E762E872E982E292E2A813B814C811D
:1006A0005D816E817F8188859985A32CB42CC52CB2
:1006B000D62CE72CF82C092D122D0E94771F205DD7
:1006C0008981622F0E9424022A813B814C815D81B5
:1006D0006E817F81888599851A850E949F272A834C
:1006E0003B834C835D836E837F8388879987111654
:1006F0000CF4B7CF1123B1F4992009F0B2CF8820C0
:1007000009F0AFCF772009F0ACCF662009F0A9CF70
:10071000552009F0A6CF442009F0A3CFF1E0F3154E
:1007200008F49FCF2A960FB6F894DEBF0FBECDBF58
:10073000CF91DF911F910F91FF90EF90DF90CF90BD
:10074000BF90AF909F908F907F906F905F904F90F1
:100750003F902F9008950A81019591E0101608F0BE
:10076000B8C01B81119581E0111608F0AAC0F12EC6
:10077000F91A91E01F1508F09BC0892B2C81219557
:1007800091E0121608F08CC0B22FB81B81E02B1735
:1007900008F07DC0982B3D81319581E0131608F05B
:1007A0006EC0A32FA91B91E03A1708F05FC0892BF8
:1007B0004E81419591E0141608F050C0E42EE81ADD
:1007C00081E04E1508F041C0982B5F81519581E082
:1007D0001516A0F5752F791B91E0571738F5892B61
:1007E0006885619521E01616C8F4962F981B892F0D
:1007F00091E0681788F4292BE985E1950A83FB824B
:10080000BC83AD83EE827F838887E21BE987898181
:100810006DE20E9424027ACE90E0EDCF20E0962F88
:10082000981B892F91E0681730F3F6CF90E0892B61
:100830006885619521E01616C0F2F0CF80E0752F33
:10084000791B91E0571758F2F1CF80E0982B5F8128
:10085000519581E0151608F4BDCFF0CF90E0E42E5D
:10086000E81A81E04E1508F4AFCFEFCF90E0892B66
:100870004E81419591E0141608F4A0CFEFCF80E0AF
:10088000A32FA91B91E03A1708F491CFEFCF80E096
:10089000982B3D81319581E0131608F482CFEFCF7C
:1008A00090E0B22FB81B81E02B1708F473CFEFCF85
:1008B00090E0892B2C81219591E0121608F464CFE9
:1008C000EFCF80E0F12EF91A91E01F1508F455CF13
:1008D000EFCF90E01B81119581E0111608F447CF0E
:1008E000F0CFAAE03A2E44245524662477248824A5
:1008F00099242224B6CE813041F0613071F080918C
:10090000C9008F778093C9000895613061F08091AC
:10091000C1008F778093C10008958091C9008068DD
:100920008093C90008958091C10080688093C100C0
:100930000895813041F0613071F08091C9008F7B62
:100940008093C9000895613061F08091C1008F7B70
:100950008093C10008958091C90080648093C9008C
:1009600008958091C10080648093C1000895813012
:1009700041F0613071F08091C9008F7E8093C90091
:100980000895613061F08091C1008F7E8093C10035
:1009900008958091C90080618093C9000895809175
:1009A000C10080618093C1000895813041F06130C1
:1009B00071F08091C900877F8093C90008956130EC
:1009C00061F08091C100877F8093C100089580917C
:1009D000C90088608093C90008958091C100886033
:1009E0008093C10008951F93182F8130A9F0BB2771
:1009F000A72F962F852F8093CD004093CC0086E0C3
:100A00008093CA00812F61E00E94B704812F61E0CA
:100A10000E94D5041F910895BB27A72F962F852FDD
:100A20008093C5004093C40086E08093C200EACF63
:100A3000FC0180910001909101019183808380915C
:100A40004C0290914D029383828380910201909198
:100A500003019583848380914E0290914F02978386
:100A60008683809104019091050191878087809110
:100A700055020895CF93DF93609153027091540211
:100A80001616170684F441E050E0DA011197FA01D6
:100A9000EB5AFD4F80818C3251F0CA014F5F5F4F9E
:100AA0008617970794F380E0DF91CF9108959A011C
:100AB00046175707C4F7FA01EE5AFD4F06C02F5FDD
:100AC0003F4F31962617370714F584818A30B9F7DE
:100AD00024303105A4F380818A3289F7E901239714
:100AE000AB5ABD4FE0EBF2E09E012E0F3F1F8D9100
:100AF0008193E217F307D9F7C055DD4F18821092A2
:100B000054021092530281E0DF91CF9108954F5F1C
:100B10005F4FBBCF5F926F927F928F929F92AF9207
:100B2000BF92CF92DF92EF92FF920F931F93DF93CA
:100B3000CF9300D000D000D0CDB7DEB78091B00207
:100B40008134B9F080E026960FB6F894DEBF0FBE70
:100B5000CDBFCF91DF911F910F91FF90EF90DF906C
:100B6000CF90BF90AF909F908F907F906F905F904D
:100B700008951E82E090510200E010E0CC24DD24B4
:100B8000E0EBF2E05E010894A11CB11C55245394E3
:100B900095E0892E912C8C0E9D1E86E0682E712C7E
:100BA0006C0E7D1E84E0C81609F445C08C1508F44F
:100BB0006BC082E0C81609F4E0C083E0C81609F4EF
:100BC000C4C0F080ECE2FE16C1F0FAE2FF16A9F014
:100BD0000035110594F4C8010196FC01E055FD4F64
:100BE00008C02A3251F03196803591050CF0ECC0E6
:100BF00001968C0120812C32A1F70F3411050CF0E5
:100C0000E3C0F801E055FD4F80818A3209F4DCC071
:100C10008C3241F60894C11CD11C8AE0C816D1045C
:100C20000CF0D2C00F5F1F4FF801E055FD4F84E07C
:100C3000C81609F0BBCF80818C32E1F1DF01F501EC
:100C40008D918193E615F705D9F71E82C5010E94A3
:100C5000A2309093030180930201F801EA54FD4F02
:100C60008081898381818A8382818B831C82075F53
:100C70001F4FC5010E94A23090934F0280934E02F5
:100C8000F801E055FD4F9DCF87E0C816C9F189E016
:100C9000C81699F085E0C81609F093CF80818C3290
:100CA00049F00F5F1F4F873509F496C0F801E055F2
:100CB000FD4F87CF10925202A0CFF080FCE2FF16CA
:100CC000C9F38EE2F81609F496C098012F543D4FEF
:100CD0008F2DA0E0B0E0F501EA0FFB1F8083119695
:100CE000F90181919F018E32B1F7AA0DBB1D1C92B3
:100CF000C5010E94A230909305018093040165CF45
:100D0000F0808CE2F81609F462C098012F543D4F30
:100D10008F2DA0E0B0E0F501EA0FFB1F8083119654
:100D2000F90181919F018C32B1F7AA0DBB1D1C9274
:100D3000C5010E94A23080935002109252028E157B
:100D400008F443CF5092520240CF80818C3209F494
:100D5000B1CF0F5F1F4F833509F0A8CF80910001FD
:100D600090910101909581959F4F909301018093FF
:100D70000001F801E055FD4F24CF80818C3209F449
:100D800099CFDF01F5018D918193E815F905D9F728
:100D90001D82C5010E94A230909301018093000141
:100DA000F801EB54FD4F8081898381818A838281A0
:100DB0008B831C82085F1F4FC5010E94A230909355
:100DC0004D0280934C0272CF80915202BCCE1092A1
:100DD00052021092500211CF8091020190910301B2
:100DE000909581959F4F9093030180930201F801A4
:100DF000E055FD4FE6CEA0E0B0E077CFF8940E943A
:100E00003A057894882319F51092540210925302EF
:100E1000809155028823D1F480E29EE490930101F1
:100E20008093000110924D0210924C0290930301A6
:100E30008093020110924F0210924E0280E69AEEC9
:100E400090930501809304011092500208950E942E
:100E50008A0580935502DCCFBC0180E00E944702E6
:100E6000089580E049E050E060E070E00E94F30403
:100E700088EE93E00E94B60880E06CE770E00E9484
:100E8000470284E690E00E94B60886E190E00E9466
:100E90004F168093510280E061E00E947B040E9423
:100EA0003A0508951F920F920FB60F9211242F93B7
:100EB0003F934F935F936F937F938F939F93AF93E2
:100EC000BF93EF93FF93A0915302B0915402AA35C0
:100ED000B105C4F08091CE00AB5ABD4F8C930E94F7
:100EE0009808FF91EF91BF91AF919F918F917F9162
:100EF0006F915F914F913F912F910F900FBE0F9087
:100F00001F9018958091CE00FD01EA5AFD4F808315
:100F10001196B0935402A0935302E1CF982F809181
:100F20007A008F7780937A009130A9F1913040F167
:100F3000923051F480917C00806480937C00809199
:100F40007C00806880937C0080917C00806280932C
:100F50007C0080917A00816080937A0080917A0091
:100F6000826080937A0080917A00846080937A0016
:100F70006093000380917A00806880937A000895DE
:100F800080917C00806480937C0080917C008F77CE
:100F900080937C00D9CF80917C008F7B80937C00F4
:100FA00080917C00806880937C00CECF90917C0003
:100FB000907E90937C0090917C00982B90937C0085
:100FC00080917A00806480937A0080917A0086FD17
:100FD000FCCF4091780080917900282F30E08091FB
:100FE0000003882391F0C901880F991F880F991F6A
:100FF000242F30E00024220F331F001C220F331F48
:10100000001C232F302D280F391FC901089581306E
:1010100031F080917A008F7780937A0008958091E3
:101020007A00806880937A0008951F920F920FB61D
:101030000F9211242F933F935F936F937F938F931E
:101040009F93AF93BF938091030390910403019604
:10105000909304038093030381E090E090938500D4
:1010600080938400809103039091040320910103F5
:101070003091020368EE73E00E940730260F371F9D
:1010800030930203209301038091030390910403A2
:1010900068EE73E00E94073090930403809303038B
:1010A0008091050390910603181619064CF40197D8
:1010B0009093060380930503892B11F41092070384
:1010C000BF91AF919F918F917F916F915F913F9170
:1010D0002F910F900FBE0F901F901895E4E6F0E04F
:1010E0008081877F8083E0E8F0E080818E7F80834D
:1010F00080818D7F8083E1E8F0E08081886080835B
:1011000080818F7E808380818460808380818D7FD9
:101110008083808181608083EFE6F0E0808182605F
:10112000808389E090E090938900809388000895FF
:101130001092070308952091010330910203C90121
:1011400008952091030330910403C9010895F89490
:1011500010928500109284007894109202031092ED
:10116000010310920403109203030895CF93DF93B9
:10117000EC01009779F41BC060E07CEFCB01019794
:10118000F1F7CE01CD31D10510F08CE190E0C81B14
:10119000D90B69F0CC31D10578F7BE0180E090E041
:1011A00020E039E040E050E00E94DC2FE7CFDF9103
:1011B000CF910895882359F08B3450F091EE9A9591
:1011C000F1F7982F8C3408F09BE4891BA9F7089558
:1011D000982F990F980FF3CF8091060190910701F6
:1011E0009C01220F331F220F331F220F331F280FA2
:1011F000391F2D5230402B35310534F12AE530E0CE
:101200003093060320930503F894232BA9F081E083
:101210008093070383B7817F83BF83B7816083BFD8
:10122000789481E00E94DA088895809107038823EA
:10123000C1F783B78E7F83BF87E390E09093070168
:10124000809306017894089537FFDACF20E030E0EC
:10125000D7CFFF920F931F93CF93DF93DC018B01C6
:10126000EA01F22E4091030350910403E881F981D1
:101270004E175F0708F463C08D919C911197840FFE
:10128000951F8E1B9F0B11969C938E9359834883B9
:10129000809108019091090148175907D0F1809178
:1012A0000601909107019A01281B390B82179307B9
:1012B00008F469C0821B930B909307018093060189
:1012C00050930901409308016D917C91119760172B
:1012D000710708F442C0FF2009F061C0601B710B68
:1012E0006D937C9380910601909107019801261BD4
:1012F000370BB9018217930708F4BC0170930701FB
:101300006093060181E0DF91CF911F910F91FF90D3
:101310000895209106013091070148515C4FBA01B0
:10132000681B790BCB01485E53402617370778F1CD
:10133000281B390B3093070120930601C1CFCA0146
:1013400088519C4F2D913C911197820F931F8E1BBA
:101350009F0B11969C938E9399CF8091060190914B
:1013600007019801261B370BB9018217930768F014
:10137000709307016093060180E0DF91CF911F9188
:101380000F91FF9008959C0195CFBC01F1CFC90149
:10139000281B390B309307012093060191CF60E0A1
:1013A00070E09ECF823051F0833069F0813011F0CF
:1013B00080E0089580E01A9B04C0089580E01999A8
:1013C000FCCF81E0089583B18095817008958330CA
:1013D00019F1843028F0843099F0853059F008955F
:1013E0008130A1F08230D9F783E066E070E00E949E
:1013F000D718089583E067E070E00E94D718089539
:1014000083E064E070E00E94D718089582E063E012
:1014100070E00E94D718089583E065E070E00E94B4
:10142000D7180895833079F1843028F0843011F191
:10143000853071F008958130A1F08230D9F76623AC
:1014400091F583E063E046E050E00E94AE17089516
:101450006623F1F182E063E047E050E00E94AE17BE
:1014600008956623C9F483E062E043E050E00E94FF
:10147000AE1708956623F1F483E063E044E050E0A2
:101480000E94AE1708956623E1F483E063E045E02F
:1014900050E00E94AE17089582E062E043E050E021
:1014A0000E94AE17089582E063E046E050E00E949B
:1014B000AE17089582E063E044E050E00E94AE176A
:1014C000089582E063E045E050E00E94AE17089581
:1014D00083E063E047E050E00E94AE1708950F9369
:1014E0001F93CF93DF938C0181E00E94D209882360
:1014F00009F04CC0F80180818823B9F1F80182819C
:1015000093810597248135818217930708F46AC077
:1015100081E060E00E94120A10920F0310920E0305
:1015200083E00E94D209882321F081E0F8018083C2
:10153000118282E00E94D209882319F0F8011082FA
:101540001182F8018081882319F48181882389F030
:1015500083E061E00E94120A82E060E00E94120AC9
:10156000DF91CF911F910F9108958181882381F29E
:10157000C5CF82E061E00E94120A83E060E00E9431
:10158000120ADF91CF911F910F91089581E061E0E0
:101590000E94120AF80111828EE093E068EB7BE072
:1015A00048E053E020E00E942909882309F4B8CFDD
:1015B000F801108282E061E00E94120A83E060E09C
:1015C0000E94120A0E949616C0E0D0E082E390E0EA
:1015D0000E94B60881E00E94E7092196C233D10536
:1015E000A9F79ECF81E061E00E94120A95CF82E0C8
:1015F00063E044E050E00E94AE1782E063E047E021
:1016000050E00E94AE1782E062E043E050E00E94AA
:10161000AE1782E063E046E050E00E94AE1782E041
:1016200063E045E050E00E94AE1781E061E042E0F7
:1016300050E00E94AE1781E061E041E050E00E947E
:10164000AE1781E061E040E050E00E94AE170895DF
:10165000AC018431910534F5FC01EA5EFC4FA6E152
:10166000B3E081918D9383E0EA32F807D1F7CA01A4
:10167000809590954596843191054CF4FC01EA5E85
:10168000FC4F23EA2193019684319105DCF380918C
:10169000140390911503841B950B9093150380936D
:1016A0001403089580E090E0E9CFBF92CF92DF92DB
:1016B000EF92FF920F931F93CF93DF93EC01F89477
:1016C000809114039091150384319105B4F5109124
:1016D0001603163009F4F1C01730C0F0193009F4C0
:1016E00051C01A3008F0AAC0173009F4D9C0183018
:1016F00009F475C081E090E00E94280BCC24DD2421
:10170000FF2400E0EE24BB2482E027C0133009F45C
:101710004FC0143008F07AC0113009F4DBC0123029
:1017200049F707970CF0E3C0CC24DD24FF2400E048
:10173000EE24BB2410E080E010C084E190E09093A0
:101740001503809314030E94280BCC24DD24FF246E
:1017500000E0EE24BB2410E081E078941886CF826C
:10176000DE82FD820C83EB82BA8219838883CE01EC
:10177000DF91CF911F910F91FF90EF90DF90CF906D
:10178000BF900895089784F210911703B090180342
:10179000E090190300911A03F0901B03D0901C03F2
:1017A000C0901D0388E090E00E94280B8BE0D5CF0D
:1017B00008970CF4B9CF10911703B0901803E0907C
:1017C000190300911A03F0901B03D0901C03C090E2
:1017D0001D0388E090E00E94280B86E0BECF0897AA
:1017E0000CF4A2CF10911703B0901803E0901903E6
:1017F00000911A03F0901B03D0901C03C0901D03AE
:1018000088E090E00E94280B8AE0A7CF1430B1F165
:10181000153009F06FCF04970CF486CF10911703A1
:10182000B0901803E090190384E090E00E94280B28
:10183000CC24DD24FF2400E087E08FCF1A3039F07C
:10184000133A09F057CF892B09F46ECF53CF08977D
:101850000CF46ACF10911703B0901803E0901903AD
:1018600000911A03F0901B03D0901C03C0901D033D
:1018700088E090E00E94280B8CE06FCF03970CF477
:1018800053CF10911703B090180383E090E00E94AB
:10189000280BCC24DD24FF2400E0EE2485E05DCF7E
:1018A00081E090E00E94280BCC24DD24FF2400E09E
:1018B000EE24BB2410E089E050CF81E090E00E944C
:1018C000280BCC24DD24FF2400E0EE24BB2410E010
:1018D00088E043CF81E090E00E94280BCC24DD24F7
:1018E000FF2400E0EE24BB2410E083E036CF10910B
:1018F0001703B0901803E090190300911A03F090B9
:101900001B03D0901C0387E090E00E94280BCC249E
:1019100084E023CF0F931F93DF93CF93CDB7DEB730
:1019200068970FB6F894DEBF0FBECDBF8C01CE0115
:1019300040960E94550B8889873009F41FC1883072
:1019400088F18A3009F491C08B3008F050C088309B
:1019500009F483C08930D9F40E9446166D837E83D2
:101960008F8398878E010B5F1F4F81E0F8016281A2
:101970000E94240281E0F80161810E94240281E03A
:101980006D810E94240281E060E20E942402689638
:101990000FB6F894DEBF0FBECDBFCF91DF911F9180
:1019A0000F910895843009F4ADC0853008F442C029
:1019B000853009F47CC0863051F7F801108211821D
:1019C000898989878A898A878B898B878C898C8783
:1019D0008D898D878E898E878F898F87CE01099615
:1019E0000E94F51281E066E00E942402D0CF8B3085
:1019F00009F46CC08C3059F6FE017196A091120169
:101A0000B091130141E09E01275E3F4F90818C9180
:101A1000981340E031961196E217F307B9F7442383
:101A200021F081E0F8018083118281E064E10E946D
:101A30002402ADCF833009F0AACFF80110821182C1
:101A400081E062E00E94240281E066E00E942402BC
:101A500081E067E00E9424029ACFF801108281E0C1
:101A600081836CE00E94240292CFFE017196A091C6
:101A70001201B091130141E09E01275E3F4F90811A
:101A80008C91981340E031961196E217F307B9F75D
:101A9000442309F47CCF2BE088E190E00FB6F89462
:101AA000A895809360000FBE2093600070CFF8016E
:101AB00010821182998980E02A89820F911D0E94EB
:101AC0004F16682F81E00E94240261CFFE017196BB
:101AD000A0911201B091130141E09E01275E3F4F9A
:101AE00090818C91981340E031961196E217F3079C
:101AF000B9F7442311F00E94961681E062E10E943A
:101B0000240245CF298930E040E050E0A901332785
:101B100022278A8990E0A0E0B0E0BA2FA92F982F61
:101B20008827280F391F4A1F5B1F8B89280F311DFB
:101B3000411D511D29833A834B835C834C8950E0BE
:101B400060E070E0BA01552744278D8990E0A0E05D
:101B5000B0E0BA2FA92F982F8827480F591F6A1F66
:101B60007B1F8E89480F511D611D711DF801108268
:101B70001182CE0101960E94BC0109CFF8011082AA
:101B80001182998980E02A89820F911D6B890E94B8
:101B9000541681E06AE00E942402F9CE1F937894E3
:101BA0008DE190E00E944F16482F50E060E070E019
:101BB00081E00E94F30481E061E00E947B0484EFF5
:101BC00091E00E94B60881E061EB70E00E9447025C
:101BD00084E690E00E94B60880911603833469F091
:101BE00010E0F89481E060E00E947B0410921503FD
:101BF00010921403812F1F910895809117038D3443
:101C000079F780911803843459F781E06CEA70E029
:101C10000E94470211E0E5CF4F925F926F927F9250
:101C20008F929F92AF92BF92CF92DF92EF92FF92EC
:101C30000F931F93CF93DF938DE190E00E944F1697
:101C40008E3009F4E0C08F3008F4CDC08D3109F436
:101C5000DFC08B3309F4D2C08DE190E069E00E94CF
:101C6000541611E3412EB1E35B2E8CEF93E00E94FA
:101C70004F16E82E8DEF93E00E944F16A82E8EEFA0
:101C800093E00E944F16682E8FEF93E00E944F164C
:101C9000FF2400E010E01E2D0027FF24EE24BB24CB
:101CA000CC24DD246501BB24AA24EA0CFB1C0C1DFA
:101CB0001D1DE80EF11C011D111D88EE93E00E9410
:101CC000B608772488249924982C872C762C6624AF
:101CD000E60CF71C081D191D47015801CC24DD2412
:101CE0007601C4E1D1E0499150E060E070E081E02C
:101CF0000E94F30488EE93E00E94B60881E065EF4D
:101D000070E00E94470284E690E00E94B60881E0FD
:101D100061EF70E00E94470281E0652D0E9424027D
:101D200081E0642D0E94240281E06DE00E94240283
:101D300084E690E00E94B60881E068EE70E00E94C0
:101D4000470284E690E00E94B60881E069ED70E009
:101D50000E94470284E690E00E94B60881E060EDB0
:101D600070E00E94470284E690E00E94B60881E09D
:101D700067EC70E00E94470284E690E00E94B6089B
:101D800081E06AEB70E00E94470281E084019501E6
:101D9000A601B7010E945E0281E06DE00E9424026C
:101DA00084E690E00E94B60881E065EB70E00E9456
:101DB000470284E690E00E94B60881E0C931D80766
:101DC00009F091CFDF91CF911F910F91FF90EF908C
:101DD000DF90CF90BF90AF909F908F907F906F904B
:101DE0005F904F900895843009F43BCF893009F01B
:101DF00033CF67E3462E55E3552E37CF86E3482E83
:101E000009E3502E32CF48E3442E33E3532E2DCF37
:101E100029E3422E91E3592E28CF8EE190E00E94D3
:101E20004F168F3FC9F00E94CE0D882369F0E6E17E
:101E3000F3E083EA819393E0EA32F907D9F781E08E
:101E400061E00E947B04089581E044E050E060E09E
:101E500070E00E94F304EBCF8EE190E060E00E941E
:101E600054160E940C0EDFCF1F920F920FB60F92E6
:101E700011242F933F934F935F936F937F938F938F
:101E80009F93AF93BF93EF93FF93209114033091EF
:101E9000150324313105BCF08091C60080932903DD
:101EA0000E949808FF91EF91BF91AF919F918F9100
:101EB0007F916F915F914F913F912F910F900FBE46
:101EC0000F901F9018958091C600F901EA5EFC4FB3
:101ED00080832F5F3F4F3093150320931403E0CF8F
:101EE0001092B90080E28093B800399841983898F0
:101EF000409881E00895982F84EA8093BC008091F7
:101F0000BC0087FFFCCF9093BB0084E88093BC00AB
:101F10008091BC0087FFFCCF14161506A4F420E0C6
:101F200030E094E8FB01E20FF31F80818093BB0057
:101F30009093BC008091BC0087FFFCCF2F5F3F4F88
:101F4000241735077CF384E98093BC000895982F0B
:101F500084EA8093BC008091BC0087FFFCCF916035
:101F60009093BB0084E88093BC008091BC0087FF05
:101F7000FCCFDA0111971A161B0624F520E030E099
:101F800094EC9093BC008091BC0087FFFCCF8091C3
:101F9000BB00FB01E20FF31F80832F5F3F4F2A1727
:101FA0003B077CF384E88093BC008091BC0087FFF2
:101FB000FCCF8091BB00A60FB71F8C9384E9809360
:101FC000BC000895A0E0B0E0EDCFDF93CF9300D048
:101FD000CDB7DEB784EF898384E38A838EEEBE01BA
:101FE0006F5F7F4F42E050E00E947B0F0F900F9099
:101FF000CF91DF910895DF93CF9300D0CDB7DEB7B7
:1020000084EF89838EE28A838EEEBE016F5F7F4FFD
:1020100042E050E00E947B0F0F900F90CF91DF9134
:1020200008952F923F924F925F926F927F928F927C
:102030009F92AF92BF92CF92DF92EF92FF920F9357
:102040001F93DF93CF93CDB7DEB727970FB6F894E2
:10205000DEBF0FBECDBF86EF89838EEEBE016F5F00
:102060007F4F41E050E00E947B0F8EEEBE016E5F1D
:102070007F4F42E050E00E94A70F609040037090B5
:102080004103809042039090430380E690EFAFEFCE
:10209000BFEF680E791E8A1E9B1EC401B301A40106
:1020A00093010E94DC2F20E030E140E050E00E94EC
:1020B0005030522E432E342E252E60912E037091D7
:1020C0002F03882777FD8095982FA40193010E9404
:1020D000DC2F20E030E240E050E00E9450307901F7
:1020E0008A0182E090E0A0E0B0E0E80EF91E0A1F4D
:1020F0001B1F2091360330913703442737FD40954D
:10210000542F652D742D832D922D0E94DC2F20E0FD
:1021100030E041E050E00E945030E20EF31E041F18
:10212000151FC801B70124E030E040E050E00E94F4
:102130005030CA01B901605070488F4F9F4F2091B5
:1021400030033091310340E050E00E94DC2FDC018D
:10215000CB015FE0B695A795979587955A95D1F7EE
:102160008C839D83AE83BF83AA80BB24CC24DD24D3
:10217000DC2CCB2CBA2CAA248B81A80EB11CC11C40
:10218000D11CE0902A03F0902B030027F7FC009568
:10219000102FEE0CFF1C001F111FEE0CFF1C001F68
:1021A000111F82E090E0A0E0B0E0E80EF91E0A1FE7
:1021B0001B1F60912C0370912D03882777FD80955C
:1021C000982FA40193010E94DC2F20E038E040E02A
:1021D00050E00E945030E20EF31E041F151F2091A4
:1021E000380330913903442737FD4095542F652D2E
:1021F000742D832D922D0E94DC2F20E038E040E0EA
:1022000050E00E945030E20EF31E041F151FC8015B
:10221000B70124E030E040E050E00E945030A21AC4
:10222000B30AC40AD50AC601B50120E533EC40E083
:1022300050E00E94DC2F97FD6FC0660F771F881F4C
:10224000991F2C813D814E815F810E942E30C901F2
:10225000DA011C012D01C201B10120E031E040E0B2
:1022600050E00E945030B901CA010E94DC2F2EEDCF
:102270003BE040E050E00E94DC2F5B016C01C201BA
:10228000B10123E433EE4FEF5FEF0E94DC2F20E03B
:1022900030E041E050E00E94503079018A018FEC3B
:1022A0009EE0A0E0B0E0E80EF91E0A1F1B1FC60169
:1022B000B50120E030E041E050E00E945030E20EF5
:1022C000F31E041F151FC801B70120E130E040E0F4
:1022D00050E00E94503079018A01E20CF31C041D89
:1022E000151DB701C80127960FB6F894DEBF0FBEC3
:1022F000CDBFCF91DF911F910F91FF90EF90DF90B5
:10230000CF90BF90AF909F908F907F906F905F9095
:102310004F903F902F9008952C813D814E815F8199
:102320000E942E3019012A01220C331C441C551C1A
:1023300092CFEF92FF920F931F93DF93CF9300D032
:102340000F92CDB7DEB786EF89838EEEBE016F5F49
:102350007F4F41E050E00E947B0F8EEEBE016E5F2A
:102360007F4F42E050E00E94A70F6A8170E080E05A
:1023700090E0982F872F762F66272B81620F711D93
:10238000811D911D209134033091350340E050E0D0
:10239000621B730B840B950B209132033091330336
:1023A00040E050E00E94DC2F20E030E840E050E0C8
:1023B0000E94503079018A0160913C0370913D0385
:1023C000882777FD8095982FEBE0660F771F881F91
:1023D000991FEA95D1F720913E0330913F0344279E
:1023E00037FD4095542F2E0D3F1D401F511F0E9459
:1023F00050302E0D3F1D401F511F2093400330933E
:1024000041034093420350934303285F3F4F4F4F94
:102410005F4FCA01B90120E130E040E050E00E9486
:102420005030C9010F900F900F90CF91DF911F9105
:102430000F91FF90EF900895DF93CF930F92CDB758
:10244000DEB78AEA89838EEEBE016F5F7F4F41E07F
:1024500050E00E947B0F8EEE6AE273E042E050E0B3
:102460000E94A70F80912B0390912A039827892718
:1024700080932B03892780932A038EEE6CE273E00E
:1024800042E050E00E94A70F80912D0390912C0311
:102490009827892780932D03892780932C038EEE1C
:1024A0006EE273E042E050E00E94A70F80912F039C
:1024B00090912E039827892780932F038927809353
:1024C0002E038EEE60E373E042E050E00E94A70F1F
:1024D00080913103909130039827892780933103AD
:1024E0008927809330038EEE62E373E042E050E090
:1024F0000E94A70F80913303909132039827892778
:10250000809333038927809332038EEE64E373E074
:1025100042E050E00E94A70F809135039091340370
:1025200098278927809335038927809334038EEE7B
:1025300066E373E042E050E00E94A70F809137030A
:1025400090913603982789278093370389278093B2
:1025500036038EEE68E373E042E050E00E94A70F7E
:102560008091390390913803982789278093390304
:102570008927809338038EEE6AE373E042E050E0EF
:102580000E94A70F80913B0390913A0398278927D7
:1025900080933B03892780933A038EEE6CE373E0CC
:1025A00042E050E00E94A70F80913D0390913C03D0
:1025B0009827892780933D03892780933C038EEEDB
:1025C0006EE373E042E050E00E94A70F80913F036A
:1025D00090913E039827892780933F038927809312
:1025E0003E030F90CF91DF910895DF93CF93CDB746
:1025F000DEB728970FB6F894DEBF0FBECDBFFC0143
:1026000019823081832F6AE00E94FB2F282F2295A8
:10261000207F832F0E94FB2F290F2A833181832F54
:102620000E94FB2F282F2295207F832F0E94FB2FB3
:10263000290F2B833281832F0E94FB2F282F229575
:10264000207F832F0E94FB2F290F2C8383818D8372
:102650003481832F0E94FB2F282F2295207F832FE8
:102660000E94FB2F290F2E833581832F0E94FB2F81
:10267000282F2295207F832F0E94FB2F290F2F8345
:102680003681832F0E94FB2F282F2295207F832FB6
:102690000E94FB2F290F288780EDBE016F5F7F4FBF
:1026A00048E050E00E947B0F28960FB6F894DEBFFA
:1026B0000FBECDBFCF91DF910895DF93CF9300D0B0
:1026C00000D0CDB7DEB787E0898380E88A831B829C
:1026D0001C8280EDBE016F5F7F4F44E050E00E949E
:1026E0007B0F0F900F900F900F90CF91DF91089577
:1026F0000F931F93DF93CF93CDB7DEB728970FB615
:10270000F894DEBF0FBECDBF8C01198280EDBE01F3
:102710006F5F7F4F41E050E00E947B0F80EDBE0174
:102720006E5F7F4F47E050E00E94A70F5A81852FD0
:1027300090E080779070959587959595879595957C
:102740008795959587959C01220F331F220F331F84
:10275000220F331F880F991F280F391F5F70520FE8
:10276000952F9295907FF801838D8F70892B838FA1
:1027700052955F704B81842F90E080779070959593
:1027800087959595879595958795959587959C01BE
:10279000220F331F220F331F220F331F880F991F61
:1027A000280F391F4F70420F440F440F5370542BA2
:1027B000548F4C81842F90E080739070959587950D
:1027C0009595879595958795959587959C01220F69
:1027D000331F220F331F220F331F880F991F280F1B
:1027E000391F4F70420F8D818295880F807E4F7107
:1027F000482B458F4E81842F90E080739070959583
:1028000087959595879595958795959587959C013D
:10281000220F331F220F331F220F331F880F991FE0
:10282000280F391F4F70420F5F81852F90E0807114
:10283000907095958795959587959595879595959C
:1028400087959C01220F331F220F331F220F331F46
:10285000880F991F280F391F5F70520F852F82959F
:10286000880F807E4F71482B468F5695569556950A
:102870004885842F82958F7090E09C01220F331F32
:10288000220F331F220F331F880F991F280F391F64
:102890004F70420F440F5170542B578F28960FB62C
:1028A000F894DEBF0FBECDBFCF91DF911F910F9186
:1028B0000895CF92DF92EF92FF920F931F93DF93D1
:1028C000CF93CDB7DEB727970FB6F894DEBF0FBE14
:1028D000CDBF8C017B016A0182E3898386EABE0158
:1028E0006F5F7F4F41E050E00E947B0F86EABE01A0
:1028F0006E5F7F4F46E050E00E94A70F8A812091D3
:10290000440330914503280F311D9B8180E0280F3F
:10291000391FF801318320838C8120914603309147
:102920004703280F311D9D8180E0280F391FF701D3
:10293000318320838E812091480330914903280FF1
:10294000311D9F8180E0280F391FF60131832083DC
:1029500027960FB6F894DEBF0FBECDBFCF91DF91A3
:102960001F910F91FF90EF90DF90CF9008952F92DD
:102970003F924F925F926F927F928F929F92AF920F
:10298000BF92CF92DF92EF92FF920F931F93DF934C
:10299000CF93CDB7DEB727970FB6F894DEBF0FBE43
:1029A000CDBF82E3898322E0822E912C8C0E9D1E66
:1029B00092E0692E712C680C791C86E0282E312C4F
:1029C0002C0E3D1E00E010E0EE24FF24CC24DD247C
:1029D000AA24BB242E010894411C511C86EAB20192
:1029E00041E050E00E947B0F86EAB40146E050E0EF
:1029F0000E94A70FF40180819181E80EF91EF30176
:102A000080819181C80ED91EF10180819181A80E2B
:102A1000B91E0F5F1F4F0A30110501F7C70166EF9E
:102A20007FEF0E941B30262F609344037093450371
:102A3000C60166EF7FEF0E941B30709347036093DF
:102A40004603C50166EF7FEF0E941B30605C7F4F3D
:102A5000709349036093480388E190E0622F0E94DD
:102A6000541687E190E0609145030E9454168AE174
:102A700090E0609146030E94541689E190E06091D5
:102A800047030E9454168CE190E0609148030E9435
:102A900054168BE190E0609149030E9454162796EA
:102AA0000FB6F894DEBF0FBECDBFCF91DF911F915F
:102AB0000F91FF90EF90DF90CF90BF90AF909F90DD
:102AC0008F907F906F905F904F903F902F900895E0
:102AD0000F931F93DF93CF9300D000D000D0CDB7DA
:102AE000DEB78AE28B831C828E010D5F1F4F86EA60
:102AF000B80142E050E00E947B0F8CE28B838EE0B5
:102B00008C8386EAB80142E050E00E947B0F8DE2A0
:102B10008B8388E08C8386EAB80142E050E00E9413
:102B20007B0F8EE28B831C8286EAB80142E050E084
:102B30000E947B0F81E38B8382E08C8386EAB8015D
:102B400042E050E00E947B0F88E38B838FE08C8310
:102B500086EAB80142E050E00E947B0F8FE18B8350
:102B60001C821D821E8286EAB80144E050E00E9469
:102B70007B0F88E190E00E944F16898387E190E007
:102B80000E944F168A8389819A819093450380938E
:102B900044038AE190E00E944F16898389E190E026
:102BA0000E944F168A8389819A819093470380936C
:102BB00046038CE190E00E944F1689838BE190E000
:102BC0000E944F168A8389819A819093490380934A
:102BD000480326960FB6F894DEBF0FBECDBFCF9147
:102BE000DF911F910F910895CF93DF93FC01EB01CB
:102BF000228133818A819B812817390721F080E067
:102C0000DF91CF91089520813181888199812817A2
:102C10003907A9F7268137818E819F8128173907C7
:102C200071F7248135818C819D812817390739F707
:102C300020853185888599852817390701F72285F0
:102C40003385448555858A859B85AC85BD85281748
:102C500039074A075B0799F6268537858E859F8554
:102C60002817390761F6DF01FB0120E030E05096BC
:102C70009C9150978089981711F62F5F3F4F1196BE
:102C800031962031310599F781E0BACF60914A033E
:102C900070914B0380914C0390914D030895F999E5
:102CA000FECF0E94C83008951F93CF93DF93EC01AD
:102CB000162FF999FECFCE010E944F16811721F0F1
:102CC000CE01612F0E94D030DF91CF911F910895E6
:102CD00080E090E063E00E94541681E090E068EEAE
:102CE0000E9454168CE090E061E00E9454168FE040
:102CF00090E061E00E94541682E190E061E00E9461
:102D0000541685E190E061E00E94541686E190E05F
:102D100065E00E9454168DE190E069E00E9454162F
:102D20008EE190E060E00E94541608950E94A00198
:102D300010924A0310924B0310924C0310924D03D1
:102D40000895BC0180914A0390914B03A0914C03DC
:102D5000B0914D038096A11DB11D80509040A042BE
:102D6000B04018F020E0822F08958AE493E040E21A
:102D700050E00E94C200282F80914A0390914B039B
:102D8000A0914C03B0914D038096A11DB11D80937D
:102D90004A0390934B03A0934C03B0934D03822FAF
:102DA00008952F923F924F925F926F927F928F92EF
:102DB0009F92AF92BF92CF92DF92EF92FF920F93CA
:102DC0001F93DF93CF93CDB7DEB7A4970FB6F894D8
:102DD000DEBF0FBECDBFE9E2F1E08FEF819391E05E
:102DE000E933F907D9F710924A0310924B03109276
:102DF0004C0310924D031E010894211C311CA5E0C8
:102E00004A2E512C4C0E5D1EFEEF6F2EFFEF7F2ED3
:102E1000812C912CAA24BB24650186017501E60C46
:102E2000F71C081D191D16950795F794E794D8010E
:102E3000C701880F991FAA1FBB1F880F991FAA1FC0
:102E4000BB1F880F991FAA1FBB1F880F991FAA1F9E
:102E5000BB1F880F991FAA1FBB1F89839A83AB834F
:102E6000BC83C101B20140E250E00E944401C201B2
:102E700069E171E00E94F415882309F44FC037011D
:102E80004801089461087108810891086A147B045C
:102E90008C049D0408F051C0D601C501880F991F0C
:102EA000AA1FBB1F880F991FAA1FBB1F880F991F3E
:102EB000AA1FBB1F880F991FAA1FBB1F880F991F2E
:102EC000AA1FBB1F80934A0390934B03A0934C030C
:102ED000B0934D0380E09EEFA9169FEFB90690E0F6
:102EE000C90690E0D90609F081E0A4960FB6F894DF
:102EF000DEBF0FBECDBFCF91DF911F910F91FF902D
:102F0000EF90DF90CF90BF90AF909F908F907F9089
:102F10006F905F904F903F902F90089557016801F8
:102F20000894A11CB11CC11CD11C6A147B048C0424
:102F30009D0418F464015301AFCFA614B704C8046C
:102F4000D90409F06ACFA8CF0E9496018BEF93E0D5
:102F500060E00E9454160E94D1160895813089F1D4
:102F6000813030F0823009F441C08330B1F00895EF
:102F7000613009F4B3C0613008F077C081B121E05D
:102F800030E002C0220F331F4A95E2F720958223DA
:102F900081B982B1282322B90895613009F4ADC006
:102FA000613008F04EC081B121E030E002C0220F54
:102FB000331F4A95E2F7822B81B982B1282B22B9BF
:102FC0000895613009F4A7C0613028F531B181E07E
:102FD00090E002C0880F991F4A95E2F7282F2095AC
:102FE000232321B922B1822B82B90895613009F4DB
:102FF00066C0613008F04EC081B121E030E002C00F
:10300000220F331F4A95E2F7822B81B982B12095B6
:10301000282322B90895623009F4B9C0633009F059
:10302000A6CF3AB181E090E002C0880F991F4A957F
:10303000E2F7282F209523232AB92BB1822B8BB9B5
:103040000895623009F486C0633009F090CF8AB1E8
:1030500021E030E002C0220F331F4A95E2F7822BB5
:103060008AB98BB1282B2BB90895623009F463C05B
:10307000633009F07CCF8AB121E030E002C0220F3A
:10308000331F4A95E2F7209582238AB98BB1282312
:103090002BB90895623009F46BC0633009F067CF33
:1030A0008AB121E030E002C0220F331F4A95E2F7D7
:1030B000822B8AB98BB1209528232BB9089584B12E
:1030C00021E030E002C0220F331F4A95E2F7822B45
:1030D00084B985B12095282325B9089584B121E0CC
:1030E00030E002C0220F331F4A95E2F72095822379
:1030F00084B985B1282325B9089584B121E030E051
:1031000002C0220F331F4A95E2F7822B84B985B1A2
:10311000282B25B9089534B181E090E002C0880FD2
:10312000991F4A95E2F7282F2095232324B925B12A
:10313000822B85B9089587B121E030E002C0220FCB
:10314000331F4A95E2F72095822387B988B1282357
:1031500028B9089587B121E030E002C0220F331F63
:103160004A95E2F7822B87B988B1282B28B90895B0
:1031700087B121E030E002C0220F331F4A95E2F709
:10318000822B87B988B12095282328B9089537B1B3
:1031900081E090E002C0880F991F4A95E2F7282F3E
:1031A0002095232327B928B1822B88B9089581302F
:1031B000E9F0813028F0823021F1833061F0089508
:1031C00022B181E090E002C0880F991F6A95E2F772
:1031D000282722B908952BB181E090E002C0880F22
:1031E000991F6A95E2F728272BB9089525B181E048
:1031F00090E002C0880F991F6A95E2F7282725B949
:10320000089528B181E090E002C0880F991F6A9567
:10321000E2F7282728B90895EF92FF920F931F93A2
:10322000DF93CF9300D00F92CDB7DEB78C017B0137
:1032300083E0898384EBBE016F5F7F4F41E050E004
:103240000E947B0F84EBBE016E5F7F4F42E050E037
:103250000E94A70F9A81892F82958F70F801808331
:103260009295907F8B818F70980FF70190830F90CC
:103270000F900F90CF91DF911F910F91FF90EF90E2
:1032800008950F931F93DF93CF9300D0CDB7DEB790
:1032900081E089831A8284EB8E010F5F1F4FB80192
:1032A00042E050E00E947B0F84E690E00E94B60866
:1032B00082E0898383EC8A8384EBB80142E050E0AA
:1032C0000E947B0F84EBB80141E050E00E947B0F2D
:1032D00084EBBE016E5F7F4F41E050E00E94A70F7C
:1032E0000F900F90CF91DF911F910F9108951F9232
:1032F0000F920FB60F9211248F939F9380917703B3
:1033000090917803019690937803809377039F912F
:103310008F910F900FBE0F901F901895CF93DF9352
:10332000EC010E94A10810927A0310927903109286
:103330004F0310924E0390935303809352031092C5
:10334000550310925403909359038093580322E03D
:103350002093390110925B0310925A0390935F03FC
:1033600080935E0310926103109260039093650353
:1033700080936403109267031092660390936B032B
:1033800080936A0310926D0310926C039093710303
:103390008093700380917C03882361F41F861E86CE
:1033A0001A861B861C861D8682E090E090937A0325
:1033B0008093790380917B03882371F480E29EE4FB
:1033C000998388831B821A829D838C831F821E822D
:1033D00080E69AEE99878887DF91CF9108950F93C1
:1033E0001F93DF93CF93CDB7DEB728970FB6F8942E
:1033F000DEBF0FBECDBF8C016091500370915103B1
:103400008EE493E042E553E020E00E9429098823FE
:1034100009F0B8C180917C03882309F089C16091CB
:103420005C0370915D038AE593E04EE553E020E094
:103430000E9429098823C1F080917603813009F424
:103440005CC183E00E94D607F801818F9370828D62
:103450008C7F892B828F8091790390917A0384608D
:1034600090937A0380937903609162037091630370
:1034700080E693E044E653E020E00E942909882397
:1034800051F180917603823009F016C120917703C3
:103490003091780336952795922F990F990FF8015F
:1034A000828D8370892B828F422F42954695469557
:1034B0004370838D807F932F9370990F990F842B86
:1034C000892B838F8091790390917A038860909300
:1034D0007A0380937903609168037091690386E6AB
:1034E00093E04AE653E020E00E942909882341F155
:1034F00080917603833009F0C0C02091770330912A
:10350000780336952795922F9295907FF8018689BA
:103510008F70892B868B422F42954F708789807CD4
:10352000932F93709295907F842B892B878B80911A
:10353000790390917A03806190937A038093790361
:1035400060916E0370916F038CE693E040E753E067
:1035500020E00E942909882339F180917603843084
:1035600009F057C0809177039091780396958795DD
:10357000382F3295330F330F307CF80127892F73A2
:10358000232B278B292F2295220F220F207C869513
:103590008695822B808F8091790390917A03806247
:1035A00090937A038093790380917B03882309F0B9
:1035B00053C0609142017091430180E491E044E482
:1035C00051E020E00E942909882309F055C160914B
:1035D00048017091490186E491E04AE451E020E01D
:1035E0000E942909882309F08FC020E08091790387
:1035F00090917A03CF9709F499C0822F28960FB63D
:10360000F894DEBF0FBECDBFCF91DF911F910F9118
:10361000089586E00E94D607382F3295330F330F76
:10362000307CF80127892F73232B278B9295990FD4
:10363000990F907C86958695892B808F8091790350
:1036400090917A03806290937A03809379038091BA
:103650007B03882309F4ADCF60913C0170913D015B
:103660008AE391E04EE351E020E00E94290988239B
:1036700009F49FCF0E94FE069CCF85E00E94D607EA
:10368000382F3295307FF80126892F70232B268B17
:1036900082958F702789207C93709295907F282B3C
:1036A000292B278B8091790390917A0380619093E5
:1036B0007A038093790344CF84E00E94D607382FA1
:1036C000330F330FF801228D2370232B228F829525
:1036D000869586958370238D207F9370990F990F1F
:1036E000282B292B238F8091790390917A0388606E
:1036F00090937A0380937903EECE80917703909133
:10370000780396958795A0CE80E00E94D6078051D9
:10371000924008F06ACF84E00E94E70920E080919F
:10372000790390917A03CF9709F067CF21E065CFB5
:10373000609156037091570384E593E048E553E0A8
:1037400020E00E942909882309F469CE809139017B
:1037500090E0019663E070E00E941B308093390195
:10376000813009F4C8C0813008F0ACC00E94FB0F62
:103770008091560390915703069790935503809339
:1037800054034DCECE010396BE016B5F7F4FAE0159
:10379000495F5F4F0E9459148B81F801808B8C81A7
:1037A0002D81922F990F990F8370892B818B2295F0
:1037B0002695269523708E818370880F880F3F8110
:1037C000932F9295907F822B892B828B32953F701D
:1037D0008389807C988593709295907F832B892B29
:1037E000838BCE010196BE016E5F7F4F0E940C1944
:1037F0009981292F2295220F220F207CF80183899D
:103800008F73822B838B969596952A81822F880FB2
:10381000880F9370982B948B22952695269523706C
:1038200085898C7F822B858BC8010E94781387E065
:103830000E94D607382F330F330FF80125892370E4
:10384000232B258B82958695869583702689207FEC
:103850009370990F990F282B292B268B80917B032E
:10386000882331F58091790390917A038160909358
:103870007A0380937903CECD80E00E94D6078F52E1
:10388000924060F080E00E94D6078F52924008F488
:103890009ECE84E061E00E94120A99CE80E00E94F0
:1038A000D6078051924070F384E00E94E7098FCEE2
:1038B000C8010E9418058823C9F085E061E00E94D4
:1038C000120AD0CF823009F0AACD0E941110F8015F
:1038D00062877387848795878091790390917A03B3
:1038E000826090937A038093790399CD85E060E0BC
:1038F0000E94120AB7CF0E949911F8019787868714
:103900000E94E50F8091560390915703069790937C
:1039100055038093540383CDEF92FF920F931F932F
:10392000CF93DF93182F80E061E00E948E070E9402
:103930006E080E94700F0E941C120E9468150E945F
:103940004119112309F015C180E090E00E944F1643
:10395000182F00E081E090E00E944F16080F111D23
:103960008CE090E00E944F16809372038FE090E00D
:103970000E944F168093730382E190E00E944F16DD
:103980008093740385E190E00E944F168093750345
:1039900086E190E00E944F1610927B03882319F075
:1039A00081E080937B0310927C030931110518F0AC
:1039B00081E080937C030A30110508F07CC00AE0A6
:1039C00010E0C5E0D0E0EE24EA94FE2C12B882B1FB
:1039D00081B982E062E045E050E00E94AE1782E0EB
:1039E00062E044E050E00E94AE17F89480916900D4
:1039F0008E7F80936900809169008D7F809369003C
:103A000080916B008F7B80936B0010926800109206
:103A1000760380917203882309F48DC0809173032B
:103A2000882309F452C080917403882309F0A4C04C
:103A30008091690081608093690080916900826053
:103A40008093690080916B00806480936B0080910B
:103A5000680080628093680083E0809376037894A6
:103A6000D0935103C0935003F0925703E092560352
:103A700080917603813009F450C0D0935D03C093E8
:103A80005C03823009F43FC0D0936303C0936203A8
:103A9000833009F08EC010936903009368038E0190
:103AA00010936F0300936E03DF91CF911F910F91DD
:103AB000FF90EF900895E801D695C7957AEFE72E2D
:103AC0007FEFF72EEC0EFD1E81CF809169008160A3
:103AD0008093690080916900826080936900809181
:103AE0006B00806480936B0080916800806180939C
:103AF000680083E062E044E050E00E94AE1782E09C
:103B000080937603ACCF1093630300936203D0934A
:103B10006903C09368038E01C3CF10935D030093C4
:103B20005C03D0936303C0936203D0936903C09393
:103B300068038E01B5CF8091690081608093690030
:103B40008091690082608093690080916B0080643D
:103B500080936B008091680088608093680083E0A8
:103B600062E045E050E00E94AE1781E0809376036A
:103B700076CF0E943107E8CE80917503882309F043
:103B80006ECF8091690081608093690080916900A7
:103B900082608093690080916B00806480936B00E9
:103BA0008091680080648093680084E0809376034D
:103BB00056CFD0936903C0936803843009F470CF63
:103BC0008E016ECFCF93DF93F8940E94F70A88EEB0
:103BD00093E00E94B6080E940D0F81E00E948C1CA9
:103BE0000E94A41781E00E94D209882329F47894C6
:103BF00081E0DF91CF91089583E00E94D20988236C
:103C0000B1F382E00E94D209882389F3C0E0D0E0BA
:103C100082E390E00E94B60881E00E94E70982E01A
:103C20000E94E70983E00E94E70984E00E94E70917
:103C30002196C233D10561F70E94B7140E945D132B
:103C40000E9468162BE088E190E00FB6F894A895E2
:103C5000809360000FBE20936000C9CF8F929F9227
:103C6000AF92BF92CF92DF92EF92FF920F931F938A
:103C7000DF93CF93CDB7DEB7A8970FB6F894DEBF2A
:103C80000FBECDBF0E94E21D6E010894C11CD11C65
:103C900088E0F60111928A95E9F729E0E22EF12CED
:103CA000EC0EFD1EC7010E948E1980E090E00E947C
:103CB0004F16182F00E01C830B8381E090E00E94D8
:103CC0004F16080F111D1C830B830A30110520F4B9
:103CD0008AE090E09C838B8310E095E0A92EB12CC4
:103CE000AC0EBD1E87E0882E912C8C0E9D1EC60149
:103CF0000E946F0A81E061E00E94120A82E060E0A7
:103D00000E94120A83E060E00E94120AC6010E942B
:103D10008A0C81E061E00E94120A82E061E00E9468
:103D2000120A83E060E00E94120AC7010E94EF19A4
:103D3000082F81E061E00E94120A82E061E00E94A7
:103D4000120A83E061E00E94120A6B817C81C50146
:103D5000A40120E00E94290990E0212F30E0822B6D
:103D6000932B10E0892B09F011E00023F9F01123C7
:103D7000E9F089818823A9F58A81882389F000E008
:103D800010E0E0E0F0E0EE0DFF1D81E060810E94B8
:103D900024020F5F1F4FF80100321105A1F71A82AC
:103DA0001E821D82C7010E948E1910E081E060E032
:103DB0000E94120A82E061E00E94120A83E061E040
:103DC0000E94120A0E94EC0881E060E00E94120A40
:103DD00082E060E00E94120A83E061E00E94120A21
:103DE00086CFC7010E94A1168823D1F61982D8CFA9
:103DF000EF92FF920F93DF93CF93CDB7DEB760972B
:103E00000FB6F894DEBF0FBECDBFA82F002309F474
:103E100061C07E010894E11CF11C88E0F701119259
:103E20008A95E9F729833A834B835C836D837E838C
:103E3000AF83988780E2801BE82FFF27E7FDF0958E
:103E400049815A816B817C81181684F019861A8603
:103E50001B861C86882799278E1B9F0B04C0440F46
:103E6000551F661F771F8A95D2F728C0202F33274A
:103E700027FD3095DB01CA01022E04C0880F991F6F
:103E8000AA1FBB1F0A94D2F789879A87AB87BC8782
:103E900004C07695679557954795EA95D2F78D8139
:103EA0009E81AF81B88504C0880F991FAA1FBB1FD0
:103EB0002A95D2F7482B592B6A2B7B2B4D875E878F
:103EC0006F87788B29853A854B855C856D857E85E6
:103ED000AF8598898A2F60960FB6F894DEBF0FBE23
:103EE000CDBFCF91DF910F91FF90EF900895A2E7A2
:103EF000B0E0EDE7FFE10C946B30982E892E712E27
:103F000088E0FE013196DF01682E1D926A94E9F780
:103F100029833A834B835C836D837E839F8298875A
:103F2000FE013996DF011D928A95E9F7A986BA86C6
:103F3000CB86DC86ED86FE860F87188B8D819E8171
:103F4000AF81B885B7FD07C0E1961CAE1DAE1EAEB1
:103F50001FAEE19764C0219581E0121608F080E061
:103F6000319591E0131608F090E0B32FB81B81E073
:103F70003B1708F080E0982B419531E0141608F0CB
:103F800030E0A42FA91B81E04A1708F080E0382B0D
:103F9000519591E0151608F090E0F52FF31B81E0A4
:103FA0005F1708F080E0982B619531E0161608F055
:103FB00030E0E62FE91B81E06E1708F080E0382B37
:103FC000719541E0171608F040E0572F531B81E030
:103FD000751708F080E0482B892D819591E018161F
:103FE00008F090E0682E641A462D31E0861508F03E
:103FF00030E0932B882D8195891B2983BA83AB836D
:10400000FC83ED835E834F8388872FEF3FEF4FEF75
:104010005FEFE1962CAF3DAF4EAF5FAFE1978D857F
:104020009E85AF85B889B7FF6AC0E1964CAD5DAD9E
:104030006EAD7FADE1974095509560957095E19696
:104040004CAF5DAF6EAF7FAFE197A19481E01A14E2
:1040500008F080E0B19491E01B1408F090E06B2D23
:10406000681B81E0B61608F080E0982BC19421E02F
:104070001C1408F020E05C2D591B81E0C51608F0E7
:1040800080E0282BD19491E01D1408F090E04D2D94
:10409000421B81E0D41608F080E0982BE19421E0E7
:1040A0001E1408F020E03E2D391B81E0E31608F0D5
:1040B00080E0282BF19491E01F1408F090E07F2D10
:1040C000721B272F81E0F71608F080E0982B0195EE
:1040D00011E0101608F010E0802F891B982F81E066
:1040E000091708F080E0182B872D8195811BA98680
:1040F0006A875B874C873D872E879F87888B99814E
:104100002A813B814C815D816E817F81A885B98543
:104110001A850B85FC84ED84DE84CF84B88888E022
:10412000E1E18E2E912C8C0E9D1EF401682E1192D1
:104130006A94E9F7998B2A8B3B8B4C8B5D8B6E8B4A
:104140007F8BA88F9E01275E3F4FF90111928A95C0
:10415000E9F7B98F1A8F0B8FFC8EED8EDE8ECF8E26
:10416000B8A2298C3A8C4B8C5C8CED8CFE8C0F8D1C
:1041700018A169887A888B889C8821966CAE7DAE60
:104180008EAE9FAE21976D887E888F88988CE114C3
:10419000F1040105110509F0D9C362147304840404
:1041A000950408F057C100E0201600E0300601E059
:1041B000400600E0500688F41FEF21163104410448
:1041C000510439F030F048E0E42EF12C012D112D8E
:1041D00018C0EE24FF24870114C020E0221620E03E
:1041E000320620E0420621E0520630F038E1E32EAC
:1041F000F12C012D112D05C020E1E22EF12C012D15
:10420000112DD201C1010E2C04C0B695A79597952A
:1042100087950A94D2F7845B9E4FDC012C9180E253
:1042200090E0A0E0B0E08E199F09A00BB10B7C01DB
:104230008D01E21AF10801091109E114F1040105E7
:104240001105D1F10E2C04C0220C331C441C551C4A
:104250000A94D2F7A40193010E2C04C0220F331F3D
:10426000441F551F0A94D2F780E290E08E199F09EF
:1042700021966CAC7DAC8EAC9FAC219704C096941B
:104280008794779467948A95D2F7622A732A842A4E
:10429000952A2196ACACBDACCEACDFAC219704C066
:1042A000AA0CBB1CCC1CDD1CEA94D2F72196ACAE48
:1042B000BDAECEAEDFAE21976201EE24FF2429967B
:1042C000CCAEDDAEEEAEFFAE29979201810120703B
:1042D00030702D960CAF1DAF2EAF3FAF2D97C401A0
:1042E000B301A70196010E942E307B018C01C4010D
:1042F000B30129962CAD3DAD4EAD5FAD29970E941F
:104300002E30C901DA013C014D01C401B3012D96E3
:104310002CAD3DAD4EAD5FAD2D970E94DC2F9B01C6
:10432000AC018701FF24EE242196ACACBDACCEAC31
:10433000DFAC2197C601AA27BB2757016801A82A2D
:10434000B92ACA2ADB2AA216B306C406D506E0F4A7
:1043500008946108710881089108A20CB31CC41C60
:10436000D51CA214B304C404D50470F0A216B3067D
:10437000C406D50648F408946108710881089108BC
:10438000A20CB31CC41CD51CA21AB30AC40AD50AB9
:10439000C601B50129962CAD3DAD4EAD5FAD299757
:1043A0000E942E307B018C01C601B50129962CADEF
:1043B0003DAD4EAD5FAD29970E942E30C901DA01A7
:1043C0005C016D01C601B5012D962CAD3DAD4EAD24
:1043D0005FAD2D970E94DC2F9B01AC018701FF246C
:1043E000EE2421968CAD9DADAEADBFAD2197A070F2
:1043F000B070E82AF92A0A2B1B2BE216F3060407F1
:104400001507C0F40894A108B108C108D108E20C4E
:10441000F31C041D151DE214F3040405150550F0EA
:10442000E216F3060407150728F40894A108B1085A
:10443000C108D108D3019927882786017501E82A88
:10444000F92A0A2B1B2B2596ECAEFDAE0EAF1FAF43
:104450002597EBC4211431044104510471F461E047
:1044600070E080E090E020E030E040E050E00E942A
:104470002E30C901DA011C012D0100E0201600E0F8
:10448000300601E0400600E0500688F41FEF2116D8
:1044900031044104510431F028F048E050E060E07C
:1044A00070E017C040E050E060E070E012C020E033
:1044B000221620E0320620E0420621E0520628F0D3
:1044C00048E150E060E070E004C040E150E060E0AE
:1044D00070E0D201C101042E04C0B695A79597954E
:1044E00087950A94D2F7845B9E4FDC012C91E0E221
:1044F000EE2EF12C012D112DD801C701841B950B37
:10450000A60BB70B821B9109A109B1090097A10560
:10451000B10561F464015301A218B308C408D508B9
:1045200031E0632E712C812C912C24C1E3968FAF46
:10453000E397082E04C0220C331C441C551C0A941B
:10454000D2F7EE2DE81B640153010E2E04C0D69461
:10455000C794B794A7940A94D2F7A4019301E39661
:104560000FACE39704C0220F331F441F551F0A945A
:10457000D2F721966CAC7DAC8EAC9FAC21970E2E01
:1045800004C096948794779467940A94D2F7840130
:104590007301E22AF32A042B152BE9AEFAAE0BAF16
:1045A0001CAF32018824992492018101207030705F
:1045B00061960CAF1DAF2EAF3FAF6197C601B5013D
:1045C000A40193010E942E307B018C01C601B5012C
:1045D000A40193010E942E30C901DA0165968CAFC7
:1045E0009DAFAEAFBFAF6597BC01CD0161962CAD5D
:1045F0003DAD4EAD5FAD61970E94DC2F9B01AC01DC
:104600008701FF24EE24A9ACBAACCBACDCACC6016C
:10461000AA27BB275C016D01AE28BF28C02AD12A7A
:10462000A216B306C406D50660F565966CAD7DADE1
:104630008EAD9FAD6597615070408040904065960B
:104640006CAF7DAF8EAF9FAF6597A20CB31CC41C3F
:10465000D51CA214B304C404D50498F0A216B30662
:10466000C406D50670F46150704080409040659655
:104670006CAF7DAF8EAF9FAF6597A20CB31CC41C0F
:10468000D51CA21AB30AC40AD50AC601B501A401F1
:1046900093010E942E307B018C01C601B501A4015B
:1046A00093010E942E30C901DA013C014D01C40181
:1046B000B30161962CAD3DAD4EAD5FAD61970E94EB
:1046C000DC2F9B01AC018701FF24EE2489AD9AAD5C
:1046D000ABADBCADA070B07057016801A82AB92A73
:1046E000CA2ADB2AA216B306C406D506E0F408944B
:1046F0006108710881089108A20CB31CC41CD51C68
:10470000A214B304C404D50470F0A216B306C40600
:10471000D50648F408946108710881089108A20C34
:10472000B31CC41CD51C21968CAD9DADAEADBFADE8
:104730002197E3960FACE39704C0880F991FAA1F37
:10474000BB1F0A94D2F721968CAF9DAFAEAFBFAF1F
:104750002197A21AB30AC40AD50A6596ECACFDAC3F
:104760000EAD1FAD6597D70199278827682A792A4A
:104770008A2A9B2A82012227332769960CAF1DAF14
:104780002EAF3FAF6997A2019101407050706D96B6
:104790002CAF3DAF4EAF5FAF6D97C601B5016996C7
:1047A0002CAD3DAD4EAD5FAD69970E942E307B01C3
:1047B0008C01C601B50169962CAD3DAD4EAD5FAD26
:1047C00069970E942E30C901DA01A1968CAF9DAF86
:1047D000AEAFBFAFA197BC01CD016D962CAD3DAD85
:1047E0004EAD5FAD6D970E94DC2F9B01AC01870140
:1047F000FF24EE242196ACACBDACCEACDFAC21974F
:10480000C601AA27BB2757016801A82AB92ACA2AC4
:10481000DB2AA216B306C406D50660F5A1966CADD8
:104820007DAD8EAD9FADA1976150704080409040AE
:10483000A1966CAF7DAF8EAF9FAFA197A20CB31CBA
:10484000C41CD51CA214B304C404D50498F0A21649
:10485000B306C406D50670F46150704080409040A5
:10486000A1966CAF7DAF8EAF9FAFA197A20CB31C8A
:10487000C41CD51CA21AB30AC40AD50AC601B501C4
:1048800069962CAD3DAD4EAD5FAD69970E942E305F
:104890007B018C01C601B50169962CAD3DAD4EADD5
:1048A0005FAD69970E942E30C901DA015C016D018C
:1048B000C601B5016D962CAD3DAD4EAD5FAD6D97AA
:1048C0000E94DC2F9B01AC018701FF24EE2421967E
:1048D0008CAD9DADAEADBFAD2197A070B070E82A94
:1048E000F92A0A2B1B2BE216F30604071507C0F45E
:1048F0000894A108B108C108D108E20CF31C041DFA
:10490000151DE214F3040405150550F0E216F30634
:104910000407150728F40894A108B108C108D108B4
:10492000A196ECACFDAC0EAD1FADA197D7019927B8
:10493000882796018501082B192B2A2B3B2B2596BE
:104940000CAF1DAF2EAF3FAF259772C26E147F0420
:104950008006910608F45FC220E0E21620E0F2062D
:1049600021E0020720E0120788F43FEFE316F1048C
:104970000105110531F028F048E050E060E070E0FA
:1049800017C040E050E060E070E012C040E0E41684
:1049900040E0F40640E0040741E0140728F048E155
:1049A00050E060E070E004C040E150E060E070E0A2
:1049B000D801C701042E04C0B695A7959795879591
:1049C0000A94D2F7845B9E4FDC012C9130E2A32E37
:1049D000B12CC12CD12CD601C501841B950BA60B83
:1049E000B70B821B9109A109B1090097A105B10577
:1049F00099F4E614F7040805190508F4FEC1219698
:104A00006CAC7DAC8EAC9FAC2197621473048404B3
:104A1000950408F0F2C1FFC1E2968FAFE297082E2D
:104A200004C0EE0CFF1C001F111F0A94D2F76A2D60
:104A3000681BD201C101062E04C0B695A7959795B3
:104A400087950A94D2F75C016D01AE28BF28C02A71
:104A5000D12AADAABEAACFAAD8AE72016101E29650
:104A60000FACE29704C0CC0CDD1CEE1CFF1C0A94BA
:104A7000D2F7C9AADAAAEBAAFCAA64015301062E4E
:104A800004C0D694C794B794A7940A94D2F7D401DB
:104A9000C301E2960FACE29704C0880F991FAA1FCA
:104AA000BB1F0A94D2F72196ECACFDAC0EAD1FAD46
:104AB000219704C016950795F794E7946A95D2F765
:104AC00037014801682A792A8A2A9B2A6DA67EA680
:104AD0008FA698AAEDA8FEA80FA918AD38018824C2
:104AE00099249801870120703070A5960CAF1DAFF6
:104AF0002EAF3FAFA597C601B501A40193010E9457
:104B00002E307B018C01C601B501A40193010E94E6
:104B10002E30C901DA011C012D01C201B101A59697
:104B20002CAD3DAD4EAD5FADA5970E94DC2F9B0136
:104B3000AC018701FF24EE24ADA4BEA4CFA4D8A865
:104B4000C601AA27BB2757016801A82AB92ACA2A81
:104B5000DB2AA216B306C406D50600F50894210880
:104B6000310841085108EDA8FEA80FA918ADAE0CF8
:104B7000BF1CC01ED11EAE14BF04C006D10670F00B
:104B8000A216B306C406D50648F4089421083108D5
:104B900041085108AE0CBF1CC01ED11EA21AB30A98
:104BA000C40AD50AC601B501A40193010E942E30A2
:104BB0007B018C01C601B501A40193010E942E3036
:104BC000C901DA013C014D01C401B301A5962CAD28
:104BD0003DAD4EAD5FADA5970E94DC2F9B01AC01B2
:104BE0008701FF24EE248DA59EA5AFA5B8A9A070CE
:104BF000B07057016801A82AB92ACA2ADB2AA2166E
:104C0000B306C406D50600F508946108710881084A
:104C100091086DA97EA98FA998ADA60EB71EC81ED2
:104C2000D91EA616B706C806D90670F0A216B30696
:104C3000C406D50648F408946108710881089108F3
:104C4000A60EB71EC81ED91ED601C501821B930B26
:104C5000A40BB50B89A79AA7ABA7BCA7D10199272D
:104C6000882764015301A82AB92ACA2ADB2A259673
:104C7000ACAEBDAECEAEDFAE2597860175012FEF8F
:104C80003FEF40E050E0E222F32204231523A60187
:104C900066277727AD964CAF5DAF6EAF7FAFAD9710
:104CA000A9A8BAA8CBA8DCA86FEF7FEF80E090E0BE
:104CB000A622B722C822D92289A99AA9ABA9BCA940
:104CC0001D0144245524C801B701A60195010E9485
:104CD000DC2FA9966CAF7DAF8EAF9FAFA997C801AF
:104CE000B701A20191010E94DC2F3B014C01AD965E
:104CF0006CAD7DAD8EAD9FADAD97A60195010E94C7
:104D0000DC2F7B018C01AD966CAD7DAD8EAD9FAD82
:104D1000AD97A20191010E94DC2F5B016C01A801FB
:104D20009701260D371D481D591DA9966CAC7DAC09
:104D30008EAC9FACA997C401AA27BB27280F391FA7
:104D40004A1F5B1F2E153F054007510748F4E12C11
:104D5000F12C61E0062F112DAE0CBF1CC01ED11E20
:104D6000CA01AA27BB27BC01CD016A0D7B1D8C1D82
:104D70009D1D69A47AA48BA49CA466167706880658
:104D8000990650F1661577058805990509F04DC01B
:104D9000D90199278827A9962CAD3DAD4EAD5FADC1
:104DA000A99740705070820F931FA41FB51F2196C2
:104DB0002CAD3DAD4EAD5FAD2197E2960FACE297C5
:104DC00004C0220F331F441F551F0A94D2F728171F
:104DD00039074A075B0748F525960CAD1DAD2EAD8A
:104DE0003FAD2597015010402040304025960CAF34
:104DF0001DAF2EAF3FAF259718C06624772443011F
:104E000021E030E040E050E025962CAF3DAF4EAFC2
:104E10005FAF25970DC066247724430125961CAE0D
:104E20001DAE1EAE1FAE259703C066247724430136
:104E3000FE01B19688E0DF011D928A95E9F725967B
:104E4000ACACBDACCEACDFAC2597A9A2BAA2CBA2CC
:104E5000DCA26DA27EA28FA298A622962FAD2297E9
:104E60003AA14BA15CA1662D7EA1DFA098A5E19699
:104E7000ECACFDAC0EAD1FADE197E114F104010502
:104E8000110509F456C0219581E0121608F080E062
:104E90003195E1E0131608F0E0E0932E981A81E0D6
:104EA000391508F080E0E82B4195F1E0141608F080
:104EB000F0E0A42EAE1A81E04A1508F080E0F82B4D
:104EC0005195E1E0151608F0E0E0B52EBF1A81E03B
:104ED0005B1508F080E0E82B6195F1E0161608F00C
:104EE000F0E0A62FAE1B81E06A1708F080E0F82BF7
:104EF0007195E1E0171608F0E0E0C72ECF1A81E0C7
:104F00007C1508F080E0E82B8D2D8195F1E01816D6
:104F100008F0F0E0D82EDE1AE1E08D1508F0E0E0B0
:104F2000FE2B892F8195392DA5016A2F7C2D982F75
:104F30009F1B8D2DCE58DF4FE2E10C948730A7E701
:104F4000B0E0E5EAF7E20C946B30982E892E712ED2
:104F500088E0FE013196DF01682E1D926A94E9F720
:104F600029833A834B835C836D837E839F829887FA
:104F7000FE013996DF011D928A95E9F7A986BA8666
:104F8000CB86DC86ED86FE860F87188B8D819E8111
:104F9000AF81B885B7FD07C0E1961CAE1DAE1EAE51
:104FA0001FAEE19764C0219581E0121608F080E001
:104FB000319591E0131608F090E0B32FB81B81E013
:104FC0003B1708F080E0982B419531E0141608F06B
:104FD00030E0A42FA91B81E04A1708F080E0382BAD
:104FE000519591E0151608F090E0F52FF31B81E044
:104FF0005F1708F080E0982B619531E0161608F0F5
:1050000030E0E62FE91B81E06E1708F080E0382BD6
:10501000719541E0171608F040E0572F531B81E0CF
:10502000751708F080E0482B892D819591E01816BE
:1050300008F090E0682E641A462D31E0861508F0DD
:1050400030E0932B882D8195891B2983BA83AB830C
:10505000FC83ED835E834F8388872FEF3FEF4FEF15
:105060005FEFE1962CAF3DAF4EAF5FAFE1978D851F
:105070009E85AF85B889B7FF5AC0A19481E01A1404
:1050800008F080E0B19491E01B1408F090E06B2DE3
:10509000681B81E0B61608F080E0982BC19421E0EF
:1050A0001C1408F020E05C2D591B81E0C51608F0A7
:1050B00080E0282BD19491E01D1408F090E04D2D54
:1050C000421B81E0D41608F080E0982BE19421E0A7
:1050D0001E1408F020E03E2D391B81E0E31608F095
:1050E00080E0282BF19491E01F1408F090E07F2DD0
:1050F000721B272F81E0F71608F080E0982B0195AE
:1051000011E0101608F010E0802F891B982F81E025
:10511000091708F080E0182B872D8195811BA9863F
:105120006A875B874C873D872E879F87888B99810D
:105130002A813B814C815D816E817F81A885B98503
:105140001A850B85FC84ED84DE84CF84B88888E0E2
:10515000E9E18E2E912C8C0E9D1EF401682E119289
:105160006A94E9F7998F2A8F3B8F4C8F5D8F6E8FF2
:105170007F8FA8A39E012F5D3F4FF90111928A9561
:10518000E9F7B9A31AA30BA3FCA2EDA2DEA2CFA25A
:10519000B8A629A03AA04BA05CA0ADA0BEA0CFA00D
:1051A000D8A4498D5A8D6B8D7C8DE5964FAFE597D0
:1051B000E6965FAFE697E7966FAFE797E8967FAF23
:1051C000E897E8966CAC7DAC8EAC9FACE8972D96DA
:1051D0006CAE7DAE8EAE9FAE2D978D8D9E8D2F8D3C
:1051E00038A13C01490161966CAE7DAE8EAE9FAE9A
:1051F0006197A114B104C104D10409F028C3621459
:1052000073048404950408F00EC100E0201600E049
:10521000300601E0400600E0500688F41FEF21163A
:1052200031044104510439F030F088E0E82EF12CCB
:10523000012D112D18C0EE24FF24870114C020E099
:10524000221620E0320620E0420621E0520630F02D
:10525000B8E1EB2EF12C012D112D05C0A0E1EA2EB5
:10526000F12C012D112DD201C1010E2C04C0B695D7
:10527000A795979587950A94D2F7845B9E4FDC019A
:105280002C9180E290E0A0E0B0E08E199F09A00B85
:10529000B10B5C016D01A21AB108C108D108659675
:1052A000ACAEBDAECEAEDFAE6597A114B104C10405
:1052B000D10409F445C062966FAD6297062E04C012
:1052C000220C331C441C551C0A94D2F7A4019301F0
:1052D000062E04C0220F331F441F551F0A94D2F715
:1052E00080E290E08A199B09E896CCACDDACEEAC8C
:1052F000FFACE89704C0F694E794D794C7948A95D6
:10530000D2F787017601E22AF32A042B152B619646
:10531000ECAEFDAE0EAF1FAF6197E8960CAD1DADC4
:105320002EAD3FADE89704C0000F111F221F331FA1
:105330006A95D2F72D960CAF1DAF2EAF3FAF2D97CC
:10534000320188249924A20191014070507069961D
:105350002CAF3DAF4EAF5FAF699761966CAD7DAD41
:105360008EAD9FAD6197A40193010E942E307B0109
:105370008C0161966CAD7DAD8EAD9FAD6197A40142
:1053800093010E942E30CA01B90169962CAD3DAD42
:105390004EAD5FAD69970E94DC2F9B01AC01870188
:1053A000FF24EE242D96ACACBDACCEACDFAC2D977B
:1053B000C601AA27BB2757016801A82AB92ACA2A09
:1053C000DB2AA216B306C406D50690F4A20CB31CC1
:1053D000C41CD51CA214B304C404D50448F0A216FE
:1053E000B306C406D50620F4A20CB31CC41CD51CFD
:1053F000A21AB30AC40AD50AC601B501A4019301D1
:105400000E942E307B018C01C601B501A4019301DD
:105410000E942E30CA01B90169962CAD3DAD4EAD4A
:105420005FAD6997C8C1211431044104510471F47E
:1054300061E070E080E090E020E030E040E050E0AB
:105440000E942E30C901DA011C012D0100E0201656
:1054500000E0300601E0400600E0500688F41FEF4F
:10546000211631044104510439F030F068E0E62E91
:10547000F12C012D112D18C0EE24FF24870114C03A
:1054800020E0221620E0320620E0420621E052060B
:1054900030F058E1E52EF12C012D112D05C040E131
:1054A000E42EF12C012D112DD201C1010E2C04C0CE
:1054B000B695A795979587950A94D2F7845B9E4FEA
:1054C000DC012C9130E2A32EB12CC12CD12CD601C1
:1054D000C5018E199F09A00BB10B7C018D01E21A49
:1054E000F108010911096596ECAEFDAE0EAF1FAFD4
:1054F0006597E114F1040105110539F464015301C4
:10550000A218B308C408D508ECC06296FFAC629735
:10551000E496FFAEE4970F2C04C0220C331C441C0D
:10552000551C0A94D2F78A2D8F1964015301082E55
:1055300004C0D694C794B794A7940A94D2F7A40150
:10554000930104C0220F331F441F551FFA94D2F752
:10555000E8966CAC7DAC8EAC9FACE89704C096949A
:105560008794779467948A95D2F784017301E22A2D
:10557000F32A042B152B2996ECAEFDAE0EAF1FAF10
:10558000299732018824992492018101207030707A
:105590006D960CAF1DAF2EAF3FAF6D97C601B50135
:1055A000A40193010E942E307B018C01C601B5013C
:1055B000A40193010E942E30CA01B9016D962CAD51
:1055C0003DAD4EAD5FAD6D970E94DC2F9B01AC01F0
:1055D0008701FF24EE242996ACACBDACCEACDFAC89
:1055E0002997C601AA27BB275C016D01AE28BF28F9
:1055F000C02AD12AA216B306C406D50690F4A20C7E
:10560000B31CC41CD51CA214B304C404D50448F0B4
:10561000A216B306C406D50620F4A20CB31CC41C03
:10562000D51CA21AB30AC40AD50AC601B501A40141
:1056300093010E942E307B018C01C601B501A401AB
:1056400093010E942E30CA01B9016D962CAD3DAD7B
:105650004EAD5FAD6D970E94DC2F9B01AC018701C1
:10566000FF24EE2429968CAD9DADAEADBFAD29973C
:10567000A070B07057016801A82AB92ACA2ADB2A8B
:10568000A216B306C406D50690F4A20CB31CC41C23
:10569000D51CA214B304C404D50448F0A216B30662
:1056A000C406D50620F4A20CB31CC41CD51CE89675
:1056B000ECACFDAC0EAD1FADE897E4960FACE497F3
:1056C00004C0EE0CFF1C001F111F0A94D2F72D9688
:1056D000ECAEFDAE0EAF1FAF2D97A21AB30AC40AEF
:1056E000D50A3201882499249201810120703070FA
:1056F000A1960CAF1DAF2EAF3FAFA197C601B5016C
:10570000A40193010E942E307B018C01C601B501DA
:10571000A40193010E942E30CA01B901A1962CADBB
:105720003DAD4EAD5FADA1970E94DC2F9B01AC015A
:105730008701FF24EE242D96ACACBDACCEACDFAC23
:105740002D97C601AA27BB2757016801A82AB92AA5
:10575000CA2ADB2AA216B306C406D50690F4A20C08
:10576000B31CC41CD51CA214B304C404D50448F053
:10577000A216B306C406D50620F4A20CB31CC41CA2
:10578000D51CA21AB30AC40AD50AC601B501A401E0
:1057900093010E942E307B018C01C601B501A4014A
:1057A00093010E942E30CA01B901A1962CAD3DADE6
:1057B0004EAD5FADA1970E94DC2F9B01AC0187012C
:1057C000FF24EE242D968CAD9DADAEADBFAD2D97D3
:1057D000A070B070E82AF92A0A2B1B2BE216F306F8
:1057E0000407150790F4E20CF31C041D151DE214C8
:1057F000F3040405150548F0E216F306040715073F
:1058000020F4E20CF31C041D151DE21AF30A040B2C
:10581000150BD801C70162960FAC629704C0B6950C
:10582000A795979587950A94D2F789A79AA7ABA7CA
:10583000BCA71DA61EA61FA618AA898B8AA58A8B9F
:105840008BA58B8B8CA58C8B8DA58D8B2FC36A1410
:105850007B048C049D0448F4498B5A8B6B8B7C8BA6
:105860008D8B9E8B2F8B388F27C300E0A01600E016
:10587000B00601E0C00600E0D00688F41FEFA116D4
:10588000B104C104D10439F030F028E0E22EF12C4B
:10589000012D112D18C0EE24FF24870114C020E033
:1058A000A21620E0B20620E0C20621E0D20630F0C7
:1058B00098E1E92EF12C012D112D05C080E1E82E93
:1058C000F12C012D112DD601C5010E2C04C0B69569
:1058D000A795979587950A94D2F7845B9E4FDC0134
:1058E0002C9180E290E0A0E0B0E08E199F09A00B1F
:1058F000B10B821B9109A109B1090097A105B1055E
:1059000009F059C0A614B704C804D90470F0E89689
:10591000ECACFDAC0EAD1FADE897E214F30404054A
:10592000150518F4D801C7012FC0E8968CAD9DADC0
:10593000AEADBFADE89782199309A409B509A401DA
:1059400093012A193B094C095D09AA24BB2465016E
:10595000E8966CAC7DAC8EAC9FACE8976816790687
:105960008A069B0628F411E0A12EB12CC12CD12C63
:1059700079018A01EA18FB080C091D096196ECAE51
:10598000FDAE0EAF1FAF619789A79AA7ABA7BCA7C3
:1059900061960CAD1DAD2EAD3FAD61970DA71EA755
:1059A0002FA738AB898B8AA58A8B8BA58B8B8CA56F
:1059B0008C8B0D8B7BC2E3968FAFE397A60195018D
:1059C000082E04C0220F331F441F551F0A94D2F71C
:1059D00010E2181BE2961FAFE297D201C101012E1F
:1059E00004C0B695A795979587950A94D2F75C0160
:1059F0006D01A22AB32AC42AD52A2596ACAEBDAE23
:105A0000CEAEDFAE259772016101E3960FACE3974E
:105A100004C0CC0CDD1CEE1CFF1C0A94D2F72196AE
:105A2000CCAEDDAEEEAEFFAE219764015301012E88
:105A300004C0D694C794B794A7940A94D2F7A4014B
:105A40009301E3960FACE39704C0220F331F441F6A
:105A5000551F0A94D2F7E8968CAD9DADAEADBFADA3
:105A6000E89704C0B695A795979587951A95D2F7AC
:105A70007C018D01E22AF32A042B152BE9AEFAAE44
:105A80000BAF1CAFE8960CAD1DAD2EAD3FADE8974A
:105A9000E3960FACE39704C0000F111F221F331FC2
:105AA0000A94D2F70DAB1EAB2FAB38AF25962CADB9
:105AB0003DAD4EAD5FAD25973A01882499244070E5
:105AC0005070A5962CAF3DAF4EAF5FAFA597C60106
:105AD000B501A40193010E942E307B018C01C60107
